:020000040000FA
:2000000000000420A5180000CD180000CF180000D1180000D3180000D51800000000000072
:20002000000000000000000000000000D7180000D918000000000000DB180000DD180000F8
:2000400095360000812E0000CD900000DF180000DF180000DF180000A1330000DF18000019
:20006000D5660000DF180000DF180000A1370000DF180000A5360000DF180000DF180000BF
:2000800051380000DF180000DF180000DF180000DF180000DF180000DF180000DF18000016
:2000A000DF180000DF180000DF180000DF180000DF180000DF180000000000000000000076
:2000C000DF180000DF180000DF180000DF180000DF180000DF180000DF180000DF18000068
:2000E000DF180000DF180000DF1800000000000000000000DF18000000000000DF1800002D
:200100000000000000000000000000000000000000000000000000000000000000000000DF
:200120000000000000000000000000000000000000000000000000000000000000000000BF
:2001400000000000000000000000000000000000000000000000000000000000000000009F
:2001600000000000000000000000000000000000000000000000000000000000000000007F
:2001800000000000000000000000000000000000000000000000000000000000000000005F
:2001A00000000000000000000000000000000000000000000000000000000000000000003F
:2001C00000000000000000000000000000000000000000000000000000000000000000001F
:2001E0000000000000000000000000000000000000000000000000000000000000000000FF
:2002000001F0FF01102A2BDB10F0070F08D010F8013B013A8B422DD010F0070F42B3F6D1A4
:20022000F0B441EA012141EA014122F007047FF000070023F0E80256083C85EA010586EA51
:20024000010685FA47F5A3FA87F586FA47F6A5FA87F68EB9EED1F0BC01F0FF0102F007024C
:2002600032B110F8013B013A83EA010313B1F8D10020704701387047002D06BF35460338AF
:20028000073815F0010F07D1013015F4807F02BF013015F4C03F0130F0BC0138704700BF73
:2002A00010B5054C237833B9044B13B10448AFF300800123237010BD8403002000000000F5
:2002C000B0C9000008B5034B1BB103490348AFF3008008BD0000000088030020B0C900002C
:2002E000A3F5803A704700BF174B002B08BF134B9D46FFF7F5FF00218B460F461348144AB7
:20030000121A0BF07DFE0E4B002B00D098470D4B002B00D098470020002104000D000D482F
:20032000002802D00C48AFF300800AF04FFD2000290000F0DDF90AF035FD00BF0000080005
:200340000000000000000000000004208403002050270020000000000000000000B585B051
:200360000346002101AA44F20100CDE90111039300F004F805B05DF804FB00BF72B6094BA3
:20038000D3F8F030DB0700D500BEBFF34F8F0549054BCA6802F4E0621343CB60BFF34F8F54
:2003A00000BFFDE700ED00E00400FA0572B6024A1368013313607047A0030020034A1368F2
:2003C000013B136003B962B6704700BFA003002010B50446006830B1002103F04BFD54F861
:2003E000040F0028F8D110BD10B590F84C30094A0446013384F84C3080212346203000F050
:2004000099FD054B22461978BDE81040002003F0F3BD00BFE90300002A2700202DE9F041E2
:20042000038804463BB1B3F5867F0AD182290DD00120BDE8F0814FF4867323800120BDE80F
:20044000F081002303800320BDE8F08101F00AFBBFF35F8F1649174B0E6800220A601F785C
:200460001A70FFB2BFF35F8F134D01F0FFFA28680028E0D0DFF8448003E055F8040F0028E9
:20048000D9D090F8463026FA03F3DA07F5D590F8453047FA03F3DB07EFD500F0ADFD002858
:2004A000EBD02B6842461846022100F043FDE4E7B40300202D27002040010020F504000045
:2004C00010B4094A094C1368194311602178012202FA00F040EA0103DBB2237004485DF8D1
:2004E000044B03F0BBBD00BFB40300202D2700205401002070B5044600F07EFD00B970BD03
:2005000004F12006304600F077FD94F84610054694F8450001F03AFA48B994F8443063B9A6
:20052000002DECD1304600F04DFD0D4B11E00128F6D194F84430002BF2D1002DDFD00025F9
:200540002346084A84F84C507E21304600F0F2FC054B197822462846BDE8704003F04CBDCD
:200560002C270020E90300002B270020F8B503F079FC304B304C187003F074FC2F4B304FBA
:20058000187003F06FFC2F4A2F4B107022687B600025FF213972FD60002A42D02B4E09E0B2
:2005A00091F84600F9683A72834054F8042F0B43FB60B2B392F8463092F84510926C03F03F
:2005C0001F0343EA41131F2BC6BF03F01F0331464FF0A04103F5E07342F08C0241F8235046
:2005E000236893F8461093F8450001F08BF9226892F8463092F8450003F01F0343EA40105F
:20060000012102F023FE2168387A91F8452082424FF00103C4D0FF28C2D054F8042F002A7F
:20062000C8D10B48002103F025FCBDE8F840044801F0C0B92B270020400100202C270020C0
:20064000A40300202A270020C10400000003005054010020042800D0704708B5054A13689B
:200660000133136000F0D6FD00B908BDBDE8084000F0B0BDB803002000B5134B83B0002205
:200680001A6002F05BFCC0B9002002F073FC0F4B0F4A93E803000090ADF804100D4869461F
:2006A00003F014F860B901210A4803F063F8094803F054F803B05DF804FBFFF74FFEE3E7BC
:2006C000FFF74CFEEFE700BFB803002058C300005506000060C30000014B1868704700BF8F
:2006E000B8030020014B1868C0097047B803002038B5664C03F09CFAFFF7BEFF05F0FCFF2D
:2007000003F0EAFB6248002103F0B4FB00F0FEFB0AF00CFB00F0AAFC07F0B0FC03F090FAF4
:2007200003F0BAFC01F040FF01F050FF2368022B3ADC584A584B1168526819605A60574888
:20074000002103F097FB4FF0FF3008F065FF2368022B054611DC03F09BFA5148FFF738FEEC
:200760000AF00CFB03F0D4FB0446E4B20AF00EFB002CF7D103F092FAF4E74A4A4A494B48CB
:2007800003F0A8FA4A4803F0A5FA2368022BE2DD05B10235284601F067FB2368022BDADD0C
:2007A0000A2003F069FCD6E73E4A3F493F4803F091FA404803F062FC2368022BB9DD394A3B
:2007C00039493A4803F086FA3B4B3C48196803F081FA2368022BACDD324A3349334803F002
:2007E00079FA374B3748196803F074FA2368022B9FDD2C4A2C492D4803F06CFA324B3348BE
:20080000196803F067FA2368022B92DD254A2649264803F05FFA2E484AF6CD3103F05AFA49
:200820002368022B85DD1F4A1F49204803F052FA28481A2103F04EFA2368022B7FF779AFEA
:20084000184A1949194803F045FA234B2348198803F040FA2368022B7FF76BAF114A12499C
:20086000124803F037FA1E4803F034FA2368022B7FF75FAF074801F007FB2368022B7FF7C7
:2008800058AF0A2003F0F8FB53E700BFC80100209801002004060020DC250020B802002081
:2008A000F0C4000068C3000070C3000078C300004CC4000088C300007CC60000C0C30000CB
:2008C000FCC60000D0C3000078C40000DCC30000E8C3000004C400001827002024C400002E
:2008E00034C400002DE9F0470D468B6892F82C900646506B1446D3E9007801F08DFA68684A
:2009000003F006FCA9681D4801F08AFB1C48294601F086FB606B01F031FAD8B10023A385F6
:2009200003F024FC174BA3FB0023C11A03EB51039B08C3EBC303C11A134A234604F10C00AB
:2009400000F0F8FA4B46324641463846BDE8F04701F030BB04F10C0000F034FB21460B4815
:2009600001F05AFA21460A4801F05AFB4B46324641463846BDE8F04701F01CBB64010020FC
:200980007C0100202549922495090000240400207001002020B32DE9F047044684B0406BD6
:2009A00001F0ECF90546C0B1406803F0C7FB76490C2003F021F90121072003F00FF900F01C
:2009C000A3F900280DDAAB683BB105202246294604B0BDE8F047FFF785BF04B0BDE8F087D7
:2009E000704703F09DF8694F90F802807B68019303F096F8064603F09DF8019B01463046D1
:200A0000984703F00DF9BB6901930646984700282DD1002E61D1D7F81C90C84738BBBB68F5
:200A20001E4603F087F8B04700286BD002281ED0AB68002BD1D00420C8E705F043FE6FF027
:200A400028031E1A03E005F03DFEC64202D5C8470028F8D0C84700286ED03B69032103A85A
:200A60009847032803D19DF80E3043453BD0AA68002AB2D094F82D104B1CDBB2052B84F80B
:200A80002D301AD8127A94F82C00904221D2012B88BF1F2671D903F069FBB0FBF6F101FB17
:200AA000160104F10C003A4A234600F043FA686804B0BDE8F04703F025BB94F82C300133B5
:200AC000DBB2002184F82D1084F82C30127A9A4216D82246294601207AE7BE6803F02AF8ED
:200AE000B0470028A2D1AB68002B3FF476AF94F82C300020013384F82D0084F82C3065E7C5
:200B00000726C8E705F0DEFD6FF0180AAAEB000A04E005F0D7FD1AEB000F02D5C84700283A
:200B2000F7D0019B9847002887D1C847002884D17B699847002880D0A96800293FF44DAFC3
:200B400094F82C3001330022DBB284F82D2084F82C300A7A9A4203D822462946022037E7D7
:200B600003F004FB0B4BA3FB0023C21A03EB52039B08C3EBC303C11A93E70B1D0126DBB205
:200B800006FA03F35E1E86E70406002080C5000095090000254992242DE9F04106460D2085
:200BA0000F4603F035F8054601F0A0F901210B2003F014F8464801F0E1F8D0B1044603E099
:200BC00001F04EF90446A0B12946201D01F0CAF803462046002BF3D0606B01F037F907282B
:200BE0001EDD394630460123BDE8F041062201F0E1B9384801F0F8F904460028F1D0294654
:200C0000201D01F0A9F8002304F13000C4E90C30A38501F0AFF82E48214601F0B1F8DBE7DB
:200C20002D4801F0E1F9054650B32C4801F0DCF9A86008B303F044FA6860C8B10520D5F8C5
:200C4000088002F0D3FFC8E9006710F0FF000ABF082388F8080088F80830606B294601F0D2
:200C60008FF8606B01F08AF8854217D0BDE8F081A9681A4801F0D4F91748294601F0D0F932
:200C8000606B01F0E3F80028ABD12146104801F0C3F821460F4801F0C3F9A2E794F82D30D1
:200CA000012B0ED91F2503F061FA2346B0FBF5F10B4A01FB150104F10C00BDE8F04100F067
:200CC00039B90333DBB201259D40013DEBE700BF24040020700100207C0100206401002092
:200CE0009509000008B5054801F06CF9044801F069F9BDE80840034801F064B97C01002074
:200D0000640100207001002010B501210B2002F065FF024BBDE810405B681847B0C400007D
:200D2000014B9B68184700BFB0C40000014B1B6A184700BF80C50000014B5B6A184700BF6F
:200D400080C5000010B50D4B82B01B6898470C4B04469B6A01A91820984701280BD0002C06
:200D6000019BB8BF1524802BD4BFC4EB0300C4F1800002B010BD002002B010BDB0C4000070
:200D800080C50000FFF708BF30B50D4C83B0A56A69461820A84748B901A90420A84738B154
:200DA00001F09CF8FFF79EFF236A984703B030BD0199E36A21F00201019104209847EFE7A9
:200DC00080C5000030B583B002F0AEFE032801D103B030BDFFF7A4FF0028F9DB0D2002F0C7
:200DE00017FF224900F0BEFF08B30C2002F010FF1E4900F0B7FF04460028E9D101F080F83B
:200E00000546C8B1072002F0F1FE0028E0D002238DF804308DF8054002F082FE144B8278BB
:200E2000DB688DF80620032101A89847D0E702F0F7FE0028D9D1CBE701F088F8072002F06C
:200E4000D5FE18B90B4B9B689847C1E702238DF804308DF8055002F063FE054B8278DB6876
:200E60008DF80620032101A89847EBE70406002080C50000FCC60000F0B5038883B005466A
:200E800033B14A2B18D188291BD0012003B0F0BD1B4800F073FF044630B1A168201D00F0CD
:200EA0009FF92468002CF8D1164B01221A704A2301202B8003B0F0BD00230380032003B0F6
:200EC000F0BD0F48019200F059FF04460028EED0019A031D9A4205D02468231D002CE6D0E9
:200EE0009A42F9D10648084E214600F095FFD4E90523376832600BB1E06998473760D6E76F
:200F0000040500202E270020100C002010B5064B064800241C7000F02DFF21460448BDE86F
:200F2000104002F0A7BF00BF2E270020040500208801002070B582610D4A0E4D0446107877
:200F40002E68E361666130B9A1600B482146BDE8704000F015BF201D084B2B6000F040F9EF
:200F60002E6021460448BDE8704000F009BF00BF2E270020100C00200405002088010020E1
:200F800070B50C4B1B7804462BB921460A48BDE8704000F0F5BE094D094B2E682B60043064
:200FA00000F028F92E6021460348BDE8704000F0E7BE00BF2E27002004050020100C00205D
:200FC0008801002010B50A4B1B7804463BB9C0E9033321460748BDE8104000F01DBF0430F3
:200FE00000F020F921460348BDE8104000F014BF2E2700200405002038B50C4B1D780446BD
:201000006DB90B4800F0BAFE38B1A04202D10BE0844209D000680028FAD1012038BDBDE871
:201020003840043000F0F0B8002038BD2E2700200405002010B50446C0B208F005F82046DD
:2010400010BD00BF70B570B10E46451E002404E0A64206D007F0F8FF013415F8010F0028D9
:20106000F6D1204670BD0446FBE700BF704700BF10B5FFF731FB0B4B1A68D2E90031926810
:201080000B44191A52B1D2E9003423441B1A9268994228BF1946002AF5D14318024A13601B
:2010A00010BD00BF0C050020080500202DE9F843038805465BB3592B2CD187292FD0822936
:2010C00020D12C4FDFF8B4803C684FF00009CCB1002603E0A3682646A3B11C46204607F09D
:2010E000A5FF0028F6D0E0682246882102F084FF03464046002B2AD002F0B0FFA368264684
:20110000002BEAD159232B800120BDE8F883194A1360F7E7002303800320BDE8F883154F80
:201120003968002019B9EDE789680120D9B1CB689342F9D000B139608B68002BE2D0D86881
:20114000904207BF9B688B6019469B68F5E7E360A3686EB1B3603B68C4F808902BB1FFF782
:2011600087FF3C68B3E73960CCE7034A1360C9E73B60F1E70C050020080500209801002065
:2011800010B50446104802F069FF1049E3680A684BB142B194420FD0134601E09C420BD0E1
:2011A0009B68002BFAD10A4BA2601B68E3600C60BDE81040FFF75CBF054B1B68E360BDE8EC
:2011C0001040FFF755BF00BF980100200C050020100C0020014802F041BF00BF980100201D
:2011E00010B5044607F00CFF2046BDE81040FFF7C7BF00BF10B5044607F00AFF2046BDE82E
:201200001040FFF7BDBF00BFC068B0FA80F04009704700BF024B1868003818BF0120704798
:201220000C05002010B5124B19688142044614D00B462BB19A68A24206D01346002BF9D1B2
:201240000023C4E9023310BDA2689A6049B1FFF70FFF0023C4E9023310BD82681A60002A5A
:20126000F5D1044B00221A600023C4E9023310BD0C05002008050020014B1888704700BF2B
:201280007803002000283ED0037A022B30B410D00378022B15D00379B3B10024C37913F03F
:2012A000030318BF012301B10C6002B1136030BC7047C579447A037965B90CB9012BF2D0FD
:2012C000DBB100231C46EEE7447A14F0030418BF0124E3E7C4B1032D37D1032C2ED0022C91
:2012E00024D143BB022D2DD00123032D24D1A4F10204B4FA84F46409D5E7023C012C8CBFE6
:2013000000240124CFE770474BB9022D08BF0123EAD1A4F10304B4FA84F46409C3E7032D35
:2013200001D0022D02D123461C46BCE7002BC8D1022DDAD1EDE701230024B4E7002BC0D15B
:201340000123D4E701231C46ADE7022DC7D1002BF1D1022C4FF00103DBD11C46A3E700BF18
:2013600030B500230B608B80437D0D46D9075CBF01232B70037E012B83B0044623D901AA51
:20138000694604F11000FFF77DFF009B0BB10223EB70019B0BB102236B70E37D03F003039F
:2013A000022B03D0032B14BF00230823AB70637E03F00303022B03D0032B14BF002308239A
:2013C0002B7103B030BDC37D9A0706D0437E9B0703D0C28B838B9A4202D000232375CEE76B
:2013E00001230375CBE700BF02280CBF012307230B441A78FF2A184603F1FF3303D1814278
:20140000F7D1012070470020704700BF00B583B06946FFF7A5FF9DF800309DF801209DF855
:2014200002009DF803100233134403449DF804209DF805000B441344184403B05DF804FBD3
:201440004378827890F800C0DB00120102F0100203F0080313430CF0070290F803C01343A3
:2014600002794FEA4C1C0CF0200C920143EA0C0302F0400213430B704379827990F809C04C
:2014800003F00103520043EA8C1302F0020290F807C01343027A4FEA8C0000F00C0012014C
:2014A000034302F0300213434B70704730B583B005460C466946FFF753FF214605F11000E1
:2014C000FFF7BEFF9DF80030012B04BFAB7EA3709DF801300CBF03220222022B08D1AB8B53
:2014E000A354531CA98BDBB2090A0232E154D2B29DF802306BB303F1FF3E1344AE44DBB2D9
:2015000094460132D2B21EF8011904F80C109A42F6D19DF80320022A08D1EA8BE2545A1C71
:20152000E98BD2B2090A0233A154DBB29DF8040088B100F1070C1844AC44C0B21A460133C1
:20154000DBB21CF801E904F802E09842F6D103B030BD1346DDE7184603B030BD0278437891
:20156000C2F3C00002F0070C4870C2F3401081F800C0C870C2F3001C03F00100C2F38012B7
:2015800081F802C00A71C3F3400CC3F301124871C3F381009B0981F806C0C8710A724B7285
:2015A000704700BF012943DD2DE9F04186B00F4603A914460546FFF7D1FF0B4603CB9DF8CE
:2015C00011201B882061616123836AB3AE1C03A802AA01A9FFF756FE9DF81380B8F1000F3C
:2015E00043D0029B002B31D1B8F1020FA38367D0B8F1030F4DD09DF81580B8F1000F2CD041
:20160000019BBBB9A38BE383B8F1020F4DD0B8F1030F31D0701B3B1A8742C4E90E6300DAF2
:20162000002006B0BDE8F081AB78A376EE1CCEE700207047727816F8023B03EB0223029A08
:201640009BB2E383002ADFD1A383DDE7727816F8023B03EB02239BB2C6E71E4904F108006D
:2016600000F07AFBA4F81E80D4E71A49204600F073FBA4F81C80BEE706F10800034604F1CF
:20168000080213F8011D02F8011BB342F9D10646C0E706F108000346621E13F8011D02F864
:2016A000011FB342F9D10646A5E70A4904F1080000F052FB7378237216F8023B6372A9E7B6
:2016C0000449204600F048FB7378237016F8023B637090E7F8C4000030B591B002F010FA33
:2016E000044602F021FA6A4601462046FFF75AFF00283ED0044602F0E9F9D0B39DF810105B
:201700000B2002F06BFA9DF81310072002F066FA9DF817308BB1BDF81C50FFF7ADFD854276
:2017200005D0BDF81C204FF6FF739A4221D19DF817006946FFF758FEB0B102A90C2002F08D
:201740005BFA9DF815303BB14FF6FF71062002F045FA204611B030BD9DF81A10062002F077
:201760003DFA204611B030BD69460D2002F044FAE3E74FF0FF34ECE7F8B505460B20144686
:201780000E46A84700232074A37496B3E37463750820A847002701232376A07567740620AF
:2017A000A847A076FFF768FDE0830920A84701280CBF3B4603236376FFF75EFDA0830A203C
:2017C000A84701281AD066B90323E375637E022B0CD0E37DA3F10203B3FA83F35B09237568
:2017E000F8BD0223E375637E022BF2D101232375F8BD0720A8476675E074C9E7E775E5E758
:2018000030B591B00546FFF737FD4FF6FF74A0423AD04022002168460AF0F2FB02F000FA85
:201820006A4601461A48FFF7A7FF02F0F9F918B3ADF800400C2002F0EBF9014602A800F03C
:201840008BFA02F05DF90E9002F06EF9034668460F93FFF7DBFD044615B9204611B030BD31
:2018600002F004F980B102F05BF901466846FFF71DFE204611B030BD0D2002F0C9F90146C0
:20188000684600F069FAD5E74FF0FF34E5E700BFED3B00000120FFF7B3BF00BF0020FFF708
:2018A000AFBF00BF0649074A074B9B1A03DD043BC858D050FBDC07F05FF9FEF715FD0000C8
:2018C000BCC900000000002084030020FEE7FEE7FEE7FEE7FEE7FEE7FEE7FEE7FEE7FEE7CA
:2018E00000F01F0301219940C0F3471000F068B808B501F011FC00B108BDBDE8084001F0B2
:20190000D3BB00BF30B583B00223002501F01F018DF8063012F00C03ADF80450144641EABD
:20192000401508D0042B26D0082B28D00C2B04BF03238DF8043014F0030306D0022B16D05E
:20194000012B04BF03238DF805300F4A01A9284601F0ECFB230604D4284601F0E7FC03B079
:2019600030BD0121284601F071FC03B030BD01238DF80530E9E701238DF80430DBE702237A
:201980008DF80430D7E700BFE118000001F01F0141EA40101F28CABF054B4FF0A04300F05A
:2019A0001F00D3F8101521FA00F000F001007047000300500146014800F0E2B910050020C2
:2019C00070B505460C480E4600F0D8F990B1044601E0246874B1237AAB42FAD1E36816EA71
:2019E0000301F6D063682846002BF2D098472468002CF0D170BD00BF1005002008B5034876
:201A000000F0B8F9BDE80840FFF772BF1005002010B5038804463BB13C2B14D10E48FFF7BE
:201A2000F3FBA0B9012010BD0B484FF4A061FFF7D7FB0A4802F022FB094802F01FFB3C23F5
:201A40002380012010BD00230380032010BD0248FFF7D0FBEDE700BF14050020BCC4000008
:201A6000CCC40000EFF3108072B6704780F31088704700BF10B51B4A1B4C00234FF0010C04
:201A800040FA03F1C90713D59178B9B1117892F801E001F01F0141EA4E111F29C6BF01F0A0
:201AA0001F01A6464FF0A04E0CFA01F1CEF808150133042B02F10302E2D110BD117892F824
:201AC00001E001F01F0141EA4E111F29C6BF01F01F01A6464FF0A04E0CFA01F1CEF80C15B4
:201AE000E6E700BF38C30000000300500F4A10B40F4C02F10C0C03201378517803F01F03FD
:201B000043EA41131F2BC6BF03F01F0321464FF0A04103F5E0730332944541F82300EBD168
:201B20005DF8044B0F20FFF7A5BF00BF38C300000003005010B50948FFF722FA084800F003
:201B4000BFFB48B1064C037A5B0801460372204600F07EFB0028F6D110BD00BFE405002091
:201B6000B80100200146014800F068BCB801002080B110B50446FEF7AFFD2368C01AB0F524
:201B8000963F05D2207A032894BF0020012010BD002010BD0020704770B50546144689B1AB
:201BA000022907D006290CD129462B48BDE8704000F044BC2848294600F040FC0646002871
:201BC00032D170BD2448294600F038FC0646002835D0FEF781FD337A30602344102BA8BFA4
:201BE00010233372FEF778FD3368C01AE401B0F5963FA4B208D2337A042BB38834BF19225A
:201C00000A222BB9B48070BDB3881922002BF9D0C2F16400114904FB02F203FB0022A1FBC9
:201C200002325209B28070BDFEF756FD337A30602344102BA8BF102333720C34D2E73346DE
:201C400005480822294600F067FB06460028B8D047F6FF73C380BCE7B80100201F85EB5102
:201C600038B50546042001F0C1FF29460446224824B200F0E3FB40B3B0F9062047F6FF731F
:201C80009A422DD004EB84035B001C4C5A2112FB013284FB0234D217C2EB6414838824B2D3
:201CA000C48003B138BD04F15A0212B222EAE2721E2A134BA8BF1E22D201A3FB02321209B5
:201CC00002F5807292B2828038BD034608220A48294600F021FB0028E4D047F6FF73C380D2
:201CE0008388C480002BDDD147F6FF739C42DAD14FF48072E7E700BFB80100201F85EB5109
:201D00008988888838B5094800F0DAFA60B1074D04462146284600F0ADFB2146284600F0BF
:201D200097FA04460028F4D138BD00BFB801002010B50021054800F069FABDE81040044A85
:201D4000044800234FF4E131FFF7F4B8B8010020351B0000E40500200B684A6842600360C1
:201D6000704700BF08B508220AF012F9B0FA80F0400908BD00230360704700BF00687047BE
:201D80000368DBB110B4002400E0134699420FD01A681C46002AF8D100230B600368CBB125
:201DA0001A461B68002BFBD111605DF8044B70470A686CB1226000221A60EDE700230B606E
:201DC00003684BB11A461B68002BFBD1116070470260F0E70160E8E70160704730B40568C8
:201DE0004DB12B46002400E01346994207D01A681C46002AF8D10D6030BC016070470A68AB
:201E00003CB1226000221A6005680D6030BC016070470260F6E700BF03689BB110B400243C
:201E200000E0134699421A6805D01C46002AF8D15DF8044B704734B1226000221A605DF82F
:201E4000044B704770470260F7E700BF03682BB100201B680130002BFBD1704718467047E8
:201E600000B10068704700BF00B58BB002462821684608F041FF6946024801F02BFF0BB09D
:201E80005DF804FB00C5000008B3F8B50025114F0446012665B1EB070FD52178384601F0D7
:201EA00019FF082E12D0013501360134002DF2D12178384601F00EFFF5E72E2002F0DCF85B
:201EC0002178384601F006FF082EECD1F8BD024801F000BF14C5000004C5000008B502F002
:201EE00045F9014B187008BD2F270020034B197806204A1C1A7001F071BE00BF2F2700204B
:201F0000F8B5FEF7E9FB104E0746344600250C2001F07EFE2146FFF725FF103420B9013584
:201F2000102DF4D10020F8BD062006EB051501F05DFE2B7B8342F5D1A868381AB0F5206F86
:201F40008CBF00200120F8BD0C06002070B5184E002435460C2001F05BFE2946FFF702FF08
:201F6000103510BB0134102CF4D10F2406EB041C64465CF8100DDCF80410DCF80820DCF804
:201F80000C3066450FC4F3D1062001F02FFE3073FEF7A2FB03460C20B36001F039FEBDE8F5
:201FA000704001460248FFF7D7BE002CDED1EBE70C0600208C4611461A46034608B1604645
:201FC0001847704710B504464288406800210AF017F823886288A06803FB02F2BDE81040BC
:201FE00000210AF00DB800BF30B44588ADB14368002202E00132AA420CD0194601330C7872
:20200000002CF7D101230B700588806802FB050030BC7047002030BC70472846F8E700BF44
:2020200010B4448882685CB18A420ED0B0F800C0002301E0914209D00133A3426244F9D1CE
:202040004FF0FF305DF8044B704700234268D15C0029F5D00020D0545DF8044B704700BF71
:2020600083688B4208D84288008800FB023081422CBF00200120704700207047418849B109
:2020800043680020194413F8012B02B901308B42F9D170470846704738B5104D03461048B7
:2020A000002B18BF1D46FFF769FE60B10446211D2846FFF757FE034620463BB9FFF7D0FEA5
:2020C00004460028F3D14FF0FF3038BD054A064B9068201A801003FB00F038BDF8C4000066
:2020E0003C070020CC010020ABAAAAAA2DE9F0411748FFF743FE804628B3164F164E174D3C
:2021000000240AE0204608F1040103F07FFC04464046FFF7A5FE804690B1B368A8EB0303BB
:202120009B1005FB03F3FB5C002BF1D1002CE9D14046FFF795FE08F1040480460028ECD119
:202140002046BDE8F08104462046BDE8F08100BF3C0700202C070020CC010020ABAAAAAA32
:202160002DE9F84F234CDFF8A0B0DFF88CA0DFF88C900546884604F1200754F8043FBBB146
:202180009E68AEB1A5B1DAF80820AA1A91100C3209FB01F10CD05868DA6800FB012038B10E
:2021A0001BF801201B6842FA03F3DB0700D5B047BC42E2D1D5B1104B104A9B68EB1A9B10E9
:2021C00002FB03F30E490F480022CA5429460BF80320FFF721FEB8F1000F01D1BDE8F88FBE
:2021E00029460548BDE8F84FFFF71ABF4FF0FF33E8E700BF08070020CC010020ABAAAAAAA4
:202200002C0700203C0700201408002038B10368072B04D80C4A52F82330984211D00B4A67
:202220001368072B0BD810B48160074903605C1C41F82300146001205DF8044B70470020D2
:2022400070478160012070470C07002010080020F8B5184F184C194D064608462EB358B141
:20226000F3687268C11A91FBF2F1481C1BD0B86801EB410100EB8100FFF7F2FD88B1BB6895
:20228000C31A9B1004FB03F35A1C0AD07068F16800FB031028B1EB5C32681341DB07DDD590
:2022A000F8BD0020F8BD0020E6E73046FFF7D8FD3046F8BDCC010020ABAAAAAA1408002069
:2022C00010B504461048FFF759FDB8B10F4B9968411A94B111F10C0F0FD00D4B6268E06881
:2022E000891003FB01F102FB010038B1094B22685B5C1341DB0701D510BD00200146204633
:20230000BDE81040FFF7A4BF3C070020CC010020ABAAAAAA140800202DE9F04100284FD0AC
:20232000414B0D46002908BF1D4604462846FFF7B3FE431C48D06268E36802FB0033002B25
:2023400042D03A4B22681B5C1341DF073CD500272846FFF7A1FE461C18D06268E56802FB12
:2023600000550021284609F04BFEE3686268EB1A93FBF2F35A1C06D020682C49012282407C
:20238000C85C0243CA542846BDE8F081DFF8A4804046FFF729FE064630B325483146FFF78B
:2023A000EFFCD8F808702946F71B301DFFF7D4FC17F10C0F2BD100216268084609F020FEE7
:2023C00000252846BDE8F0812846FFF765FE0130BDD11848FFF752FE0028B8D1FFF786FEFD
:2023E00007460028ECD0B3E7002FE9D03846FFF753FE411CE4D0D8F8083000EB400013EB23
:202400008006DDD000213046FFF7AAFEC5E70A496268E568BB1001FB03F302FB035500210B
:20242000284609F0EDFDA0E7F8C40000140800203C070020CC010020ABAAAAAA10B50446C4
:202440000846FFF729FE84B1431C02460DD06068E36800FB023038B1054B21689B5C0B4113
:2024600013F0010F08BF002010BD002010BD00BF1408002030B319B3C3684268CB1A93FBB6
:20248000F2F35A1C1CD030B5104C056814F803C0012202FA05FE2CEA0E0C04F803C0C3683C
:2024A0004468C91A91FBF4F14B1C0CD0084C0068635C02FA00F023EA00036354104630BD68
:2024C000002070477047104630BD00BF140800202C07002098B189B1C2684368891A91FB56
:2024E000F3F14B1C0AD0064A036812F801C0012000FA03F343EA0C035354704700207047AF
:202500002C070020B0B199B1C2684368891A91FBF3F14B1C0CD010B4074C0268635C012031
:2025200000FA02F223EA020363545DF8044B704700207047704700BF2C07002088B179B186
:20254000C2684368881A90FBF3F0431C08D0054B996800EB400011EB800002D004307047AA
:2025600000207047CC01002070B505460D480E46FFF704FC68B10446012D0CD01DB963687A
:202580000BB1984730B92046FFF76AFC04460028F2D1002070BDA3683046002BF3D0984725
:2025A000F0E700BF24080020054B10B51B689847044B5B689847044BBDE810405B6818476B
:2025C00080C5000078C40000FCC60000034A04499079D37903EB00230B807047040600204C
:2025E00018270020054A01231361D2F8503513F0FF03FAD1C2F8FC3F012070470010004059
:20260000A1B118280ED8DFE800F00F180D0D2D24635E4741130D0D0D807C78740D706C683D
:202620003D3A3600012070470020704702207047384B1B780B6000207047374B374AD3F83F
:202640000835A2FB03239B080A33DBB200200B607047334BDB7800200860002BE4D001236F
:202660000B6070472E4B1B7800200860002BDBD004230B6070477D230B6000207047002083
:202680000860704710230B6000207047254B93F900300B60002070471F4A012382B05361C5
:2026A000D2F81C31002BFBD00020C2F81C01D2F81C310193019BD2F8483503F07F035B4276
:2026C0000B6002B07047164B5B790B6000207047134B5B780B60002070470A230B60002084
:2026E000704720230B600020704703230B600020704708230B6000207047D8230B60002043
:2027000070471A230B60002070470B230B600020704700BF3027002000100040CDCCCCCC5C
:20272000E8010020312700200120704730B583B0FFF798F9BFF35F8F1D4B1B78ABB11D4B42
:202740001D4902224FF0FF34C1F80843C3F88021C3F88020BFF34F8FBFF36F8FBFF35F8FE2
:2027600003B0BDE83040FFF781B903F0FF02124B1049C3F83021D3F830410194019CC3F882
:202780003421D3F8342100924FF0FF34009DC3F8084302224FF44054C1F88021C3F80443C6
:2027A0000A60BFF35F8F03B0BDE83040FFF75EB9E801002000E100E000100040144BD3F8F6
:2027C000FC0F28B1D3F85025D2B2032A01D000207047104A127802F0FF0072B10E4A1278A2
:2027E000053A7A2AF3D8D3F83021002AEFD1D3F83401B0FA80F040097047074A1378053BEF
:202800007A2BE5D892F8800080F00100704700BF00100040E801002028080020074A1378E0
:20282000053B7A2B08D8064BD3F8303113B992F880007047012070470020704728080020CA
:20284000001000400C2801D001207047042A05D121B1034B1B680B60002070470220704789
:20286000AC08002070B51B4CD4F85055EDB2032D82B02AD0184B194A1949C4F80415C3F8D4
:20288000102502F5DE421432C3F8142501264FF00062C3F80465C3F80425FFF747FFD4F8DA
:2028A000003243F01003C4F80032D4F80032022D43F40023C4F8003209D00023C4F85831FC
:2028C000D4F858310193019B666002B070BDA66002B070BD0010004000F0014038110040DF
:2028E0002808002070B5314B314D0024C3F8384184B0D3F838210092009AC3F80C41D3F8BA
:202900000C210192019AC3F83441D3F834210292029AC3F83041D3F8303129780393039BAF
:202920004B1F7A2B38D88C1E2246691C09F040FB2B195B783F2B2DD89B00DBB21D4E1B4A2F
:202940003370D2F848151C4B01F07F01494249B21970042089B201F041F93178032001F07F
:202960003DF9164B2A7816491A74D1F84C055860D1F8481599605200DA6058680238186042
:20298000812200210A4809F03BFBFFF76BFF204604B070BDFF23D1E781222146284609F000
:2029A0002FFBFFF75FFF204604B070BD00100040280800203027002031270020AC080020EF
:2029C000008000407D2910B50C4609D801460A48A31C00F8013B224609F0EAFA002010BDDB
:2029E000064A0749074801F075F97D222146064801F070F9012010BDC00800201CC5000024
:202A00002CC5000078C3000030C5000010B4174B17490F22C3F810258A780A3A02EB820237
:202A2000C3F808250879CC798A794979120642EA0422024342EA0142C3F86C260D4C0E4809
:202A400040F202210022C3F83415C3F838457F21C3F83C2540F20122C3F81405C3F81815F6
:202A6000C3F850265DF8044B704700BF00100040E8010020211001000800000608B5084B62
:202A8000D3F8FC2F1AB1FFF7EDFE012008BD0122C3F8FC2FFFF7BAFFFFF7E4FE012008BD38
:202AA0000010004010B51C491C4C1D484FF0804200230B6023704B6003708B6082B0CB6047
:202AC0000B74C2F80031D2F800310093012300991360D2F80031002BFBD00024C2F80041BE
:202AE000D2F80031019321460E48019B01F0C2F9214681220C4809F083FA0C4B0122C3F839
:202B0000FC2FFFF783FF0A4A1378DBB21370FFF70DFE204602B010BDAC08002031270020F1
:202B200030270020D80100202808002000100040E801002000B51B4BD3F8FC2F85B052B331
:202B4000FFF790FE174B0022C3F84821D3F8481103910399C3F84421D3F844110291029987
:202B6000C3F84C21D3F84C21019201220199DA6202E0D3F844211AB9D3F84821002AF8D05E
:202B8000084BD3F84801D3F84431B0FA80F0400905B05DF804FB0122C3F8FC2FFFF736FFEE
:202BA000CEE700BF0010004010B50388044663B140F2D33293420DD1822901D0012010BD4F
:202BC000134A1378053B7A2B08D940F2D3332380012010BD00230380032010BD0D4BD3F8C5
:202BE00030311BB992F88030002BEED008F0CEF800F0B0FE00F084FF8021FFF773FE00287E
:202C0000E3DD80B200F076FF034BDB689847DCE7280800200010004078C4000010B57D28E4
:202C200084B060D8364BD3F8FC2F002A4FD0354CFFF718FEE378002B43D16378304ADBB25F
:202C40000121C2F80C35D160D2F85035DBB2022BFAD100232C49C2F80415C2F80C31D2F826
:202C60000C1101910199C2F86C31D2F86C1102910299C2F85431D2F854310393039BD2F8B3
:202C8000003223F01003C2F80032D2F80032012143F48023C2F80032116003F013FD6FF039
:202CA00002031C1A03F00EFDE042FBD4144AD2F85035DBB20B2BFAD0FFF7D4FD002004B015
:202CC00010BDFFF737FF0028B7D10220F7E701220C4CC3F8FC2FFFF799FEFFF7C3FDE3784C
:202CE000002BAAD0EDE7094A09490446094800F0F1FF2146084800F0EDFF012004B010BD06
:202D000000100040E8010020C00800201CC500002CC5000078C300004CC500007D2910B5E9
:202D20000C460CD801460D48A31C224600F8013B09F03EF92046BDE81040FFF76FBF084A65
:202D40000849094800F0C6FF214608487D2200F0C1FF2046BDE81040FFF760BFC0080020BE
:202D60001CC500002CC5000078C3000030C5000010B507280FD8DFE800F0101F0E0E404BE9
:202D800052043D4B3D48C9B25971D0F8FC2F002A59D1002010BD012010BD012961D00029E5
:202DA00049D1364B01221A61D3F8500510F0FF00FAD1C3F8FC0F10BDA1F10B030F2B3AD871
:202DC0002D4B2E4AC8B29870D2F8FC3F002BE0D001231361D2F8503513F0FF03FAD10A39A7
:202DE00001EB8101C2F8FC3FC2F80815D2F8FC3F1BB3FFF737FD002010BD31F007041AD198
:202E00001D4BC1F380011970FFF790FC204610BD31F001000FD1184BC9B2D97010BD164A81
:202E2000164BC9B25170D3F8FC2F002AB1D0C3F80C15002010BD022010BD0123C2F8FC3F83
:202E4000FFF7E4FDD5E71C7993F807C09A795979130643EA0C23234343EA0143C0F86C366D
:202E600097E7064BD3F8FC2F002AC2D1C3F8FC1FFFF7CCFDBDE700BFE8010020001000407F
:202E8000184B1B7803B1704700B503F0FF02164BD3F8301183B029B9D3F8342192B903B088
:202EA0005DF804FBC3F83021D3F8302100920F4B00990F48012283F8802003B05DF804EB85
:202EC00001F0CCB8C3F83411D3F83431019381220648019B09F094F803B05DF804EBFFF7BA
:202EE000C1BC00BFE80100200010004028080020D801002010B580B1012800D010BD0E4CDE
:202F00002369A070002BF9D01A6822615B68012098472369002BF7D1F0E7074CA368012282
:202F20006270002BEAD01A68A2605B6800209847A368002BF7D110BD4409002010B50B4C40
:202F4000237882B013B1852002B010BD08486360A3602361E36000F03BF8019000F044F8FF
:202F600001980123237002B010BD00BF44090020F52E000038B5154DAB78044673B110B192
:202F80004368012098470020FDF710FAEB680133EB600020BDE83840FDF710BA03F0FF00A9
:202FA000FDF704FA64B12A6942B1944208D0134601E09C4204D01B68002BFAD122602C6162
:202FC000EB68002BE2D100F025F8DFE744090020044A137923B90121106091801846704712
:202FE0008520704758090020084B1A68D20707D5074A4FF080410123C1F8183513707047B5
:20300000C02283F8002301221A60F1E700E100E0322700204FF080430022C3F8042182B04B
:20302000D3F804210192019802210122C3F804139A6002B0704700BF10B54FF0804382B041
:20304000D3F8002162B10021164AC3F80011D3F80011507900910121009CC3F80813A8B101
:203060004FF08043D3F80421CAB10022C3F80421D3F80421019202210A4A0198C3F8081378
:203080001368012002B0BDE8104018471368517198474FF08043D3F80421002AE5D102B0EE
:2030A00010BD00BF5809002070B5184D95F86A4082B044BB3022A818FF2108F0A1FF2846D9
:2030C0004FF0FF3640F8046B2C22FF2108F098FF0F4BA5F86840C022C5E9186483F8062389
:2030E00040221A600B4BC3F87C41D3F87C11019101984FF000420121204685F86A10C3F8E8
:20310000042302B070BD082002B070BD6009002000E100E000600040034B93F86A0000383D
:2031200018BF0120704700BF60090020F0B5444D2B1893F93030002B01DB0820F0BD8E7851
:20314000C6F34006002E0CBF0823002305EB830CACF1040C0CBF4FF00C0E4FF0080E02E0A2
:2031600001339E453ED95CF8044F0134F8D145F823202A185CB282F8304016B9EA1882F877
:2031800058008A7856071ED4D70749D51F2887BF2C4A00F01F0606464FF0A04202EB860290
:2031A000D2F8006726F00206C2F80067264FC60800F0070E17F806C0012202FA0EF242EA37
:2031C0000C02BA558A7812F002020DD1083C45FA84F5097895F8603043EA811385F8603084
:2031E0001046F0BD0420F0BD9B0003F1804303F5C0430978D3F8104524F44F3424F44074A6
:20320000C3F8104502020904D3F8100501F4403102F47C520A430243C3F810250020F0BD34
:203220001F284E7887BF074F00F01F0202464FF0A04702F5E072B60047F82260B6E700BF4A
:203240006009002000030050C409002030B4344C04EB000C82B09CF93030072B24DD083BA9
:2032600044FA83F393F860309B09032B47D0012B0CBF4FF400324FF440321F288ABF294B71
:203280004FF0A04300F01F0003EB8000D0F8003723F44033C0F80037D0F800371A43C0F803
:2032A000002702B030BC7047DAB2072AF9D8980000F1804003F1400200F5C04052B29200FA
:2032C000D0F8105592B202F1804202F5C04245F00105C0F810550020106012680192019A3F
:2032E0000029DED09CF9302054F82220002AD8D00D49012202FA03F3C1F80433D1E71F2858
:203300008ABF084A4FF0A04200F01F03D2F8102598BF0346DA4002F0010202321204ACE754
:20332000600900200003005000600040194B034493F93030072B18DCDAB2072A14D810B4E7
:203340009A0002F1804202F5C042134CD2F81005012120F0010001FA03F3C2F81005C4F838
:2033600008335DF8044B704770471F288ABF0B4B4FF0A04300F01F0003EB8000D0F800377C
:2033800023F44033C0F80037D0F80037C0F80037704700BF600900200060004000030050D4
:2033A0002DE9F04F0022164689B0CDE90222724B724C73480122354604E0043383424FEA3A
:2033C000420211D019680129F7D1D4F804131142F3D01D60196800910433834246EA020699
:2033E00000994FEA4202EDD1644BD3F87C21012A21D0F3B2D3B1634F01250024A30003F10A
:2034000080432E4203F5C0434FEA45050BD0D3F8100557F82420D3F81015C0F30520C1F331
:20342000014102B190470134082CE7D1002E16DB09B0BDE8F08F0022C3F87C21D3F87C31B1
:2034400001934FF0A042019BD2F810254E4B0292D3F810250392F3B2002B40F089804FF012
:20346000FF334A4D0DF1100ACDE9063300220492CAF80420A5F16408454C0027012614F9F0
:20348000010B431C33D0C0F3C20E0EF120030DEB030C00F007031CF8081C06FA03F319428F
:2034A000C2B200F03F0022D008EB000191F9301058F821909109B9F1000F4BD003294BD003
:2034C0001F288BBFDFF8C0E04FF0A04E02F01F0202460EEB82021CF818ECD2F800C71EEA2E
:2034E000030FCCF3014C1AD1BCF1030F3BD0A542C5D1002F9CD04FF0A0430299D3F8103514
:20350000214A9942D2F8102502D1039991428FD0DDE904010293069003920791ACE7BCF162
:20352000020FE4D1032904D0B9F1000FDFD0C847DDE74FF4403CD2F8003723F44033C2F886
:203540000037D2F8003701374CEA0303FFB2C2F80037E9E70329CAD11AF80EB04BEA030B73
:203560000AF80EB0ACE70329DED14FF4003CE2E746F000463FE700BF006100400060004033
:20358000206100406009002000030050C4090020C009002010B54FF0804386B0D3F80443A9
:2035A000620703D5D3F80821002A62D1A30605D54FF08043D3F81421002A4FD1600605D56A
:2035C0004FF08043D3F81821002A3BD1210604D54FF08043D3F81C214ABBE20504D54FF0A1
:2035E0008043D3F82021B2B9A30512D54FF08043D3F824216AB10022C3F82421D3F82421A3
:20360000214B0592059A1B68022006B0BDE81040184706B010BD0022C3F820211A4AD3F889
:203620002031049301201368049A9847DCE70020C3F81C01144AD3F81C3103931368039AAA
:203640009847CAE70022C3F81821104AD3F81831029301201368029A9847B7E70020C3F831
:2036600014010A4AD3F8143101931368019A9847A4E70022C3F80821054AD3F808310093D1
:203680001368009A984791E7D4090020D0090020CC09002008B5FFF77DFFBDE80840FFF7C1
:2036A000CBBC00BF074B0022C3F8002182B0D3F800210192019A044AD3F808051368C0B215
:2036C00002B0184700D00040D809002030B41F4C437944F823201E4C03EB4303E35C93BB13
:2036E00090F904308A78002B26DB03F16043520103F56143D2B283F8002390F90430002B4F
:2037000009DB144D4FEA531C012203F01F0302FA03F345F82C3003680A88C3F80825437958
:203720000879C97803EB4303E21850700120E0549170002030BC7047074D03F00F03520114
:20374000D2B2EA54D9E7082030BC7047E0090020DC09002000E100E014ED00E00368044AB3
:2037600001211960437903EB43030221D1547047DC09002010B403680024C3F8004183B038
:20378000D3F80041036801940122019CC3F8442311B10368C3F8042303B05DF8044B70471E
:2037A0002DE9F041274E284FDFF8A08084B000244FF48035D6F804332B4211D057F8243099
:2037C0000022E0B263B1C6F84853C6F8085347F8242057F824300393D8F80030039A984777
:2037E0000134032C4FEA4505E4D1164BD3F80423D10702D5D3F80021C2B9124BD3F8042375
:20380000920710D5D3F804216AB10022C3F80421D3F804210D4B0192019A1B68052004B04B
:20382000BDE8F041184704B0BDE8F0810022C3F80021064AD3F80031029304201368029A6F
:203840009847DAE700B0004040B10040E009002010B5084CD4F8003182B04BB1064B1B6886
:2038600098470023C4F80031D4F800310193019B02B010BD00000140E409002070B5114BDE
:20388000114A1D781160DDB9104E027801211970C6F80C25416804464FF47A720023C803AF
:2038A000490C08F0F3F9C6F80405237A084A5B01DBB282F810334FF480331360284670BD6F
:2038C000082070BD34270020E40900200000014000E100E0044B054901220220C3F8042345
:2038E0001A600870704700BF000001403427002010B504460020FCF759FD0E4A1378072B17
:2039000011D80D492370581C1070D1F80805012202FA03F30343C1F8083500240020FCF783
:203920004DFD204610BD04240020FCF747FD204610BD00BF3327002000000140034B044A42
:2039400000F5C07043F82020704700BF000001403546526E0D480E4A0E49002310B5038066
:203960000D480E4C03800E4813600370C2E902332046C2E904335360FEF7EEF904F1080025
:203980000449BDE81040FEF7E7B900BF1C270020780A0020F8C400001A270020E80900205E
:2039A000352700202DE9F041154ADFF86880154FDFF864C0144E0C46802914494FF00003CB
:2039C000C2E90033C2E90233C2E904330B7005464146384628BF8024ACF800303380FEF775
:2039E000BBF9414607F10800FEF7B6F922462946074808F0DDFA34802046BDE8F08100BF04
:203A0000780A0020E80900201A27002035270020F8090020F8C400001C2700202DE9F0418F
:203A20000E4A0F4B14781F88E519802D03DD00252846BDE8F081DFF83080224641460646AB
:203A400008F0B6FA074B198821443A46301958FA81F108F0ADFA2846BDE8F081352700203A
:203A60001A2700201C270020F809002010B5134B134C144A94F800C01B881288634452FA05
:203A800083F39BB21A18802A16DC013B1BB2002B0EDB0D4A591C03EB000E11447244013B69
:203AA0001BB211F801ED02F801E9B3F1FF3FF6D160442070012010BD002010BD1C27002043
:203AC000352700201A270020F8090020074A1388834209DB0649B1F800C080B21B1A604490
:203AE0000880138001207047002070471A2700201C270020014B1880704700BF1A2700207D
:203B0000044A054B12881B780448134450FA83F0704700BF1C27002035270020F809002004
:203B200000487047F8090020014B1888704700BF1A2700200549064A064B128808781B88F6
:203B4000104453FA80F080B2704700BF352700201C2700201A27002030B50E4C0E4D844608
:203B60008E460FCCCCF80000CCF80410CCF80820CCF80C3003CCCCF81000CCF814100FCDA7
:203B8000CEF80000CEF80410CEF80820CEF80C3030BD00BF780A0020E809002010B58446A7
:203BA0008E460068DCF80410DCF80820DCF80C30084C0FC4DCF81000DCF8141003C4064CB9
:203BC000DEF80000DEF80410DEF80820DEF80C300FC410BD780A0020E8090020024B23F85A
:203BE00010100120704700BF780A0020014B33F810007047780A002008B5044B0C3803EB4E
:203C0000C000FEF7A9F8012008BD00BFE8090020024B0C3803EBC000704700BFE8090020D2
:203C200001490248FEF79EB8F8C40000F009002008B5FDF7E3FEBDE80840FDF757BF00BF88
:203C400000B583B0FCF792FC002000F095FA05F00FFA02F035FE4FF08053F420CE213622CC
:203C60008DF800008DF801108DF80220D3F8A8208DF80320D3F8A43001936B4603CB034B47
:203C80001860596003B05DF804FB00BF040600200148002100F0EEB88002002010B5FDF7A8
:203CA000E1FE0446BFF35F8F00F09CF900B930BFBFF35F8F2046BDE81040FDF7D7BE00BFCB
:203CC0000AB90020704708B508461146FDF7BAF9002008BD0FB400B583B004AA054852F86C
:203CE000041B019204F096FA03B05DF804EB04B0704700BFF80100202DE9F84FDFF8CC80D4
:203D0000D8F80040844205460E4657D0002C43D0234601E0002B3FD01B689D42FAD1002BEC
:203D20003AD0294FAB7BD7F8009053B30023AB73002C45D04FF0020A4FF0010BA54211D096
:203D4000A37BDB070ED5A3682A465BB13C6084F80EA004F10C00872198470238012828D947
:203D600084F80EB02468002CE8D1AB683BB1B54205D03D600022832105F10C009847D8F8B9
:203D80000040A5420AD02CB12368AB420CD01C46002CF9D1C7F80090BDE8F88F2B68C8F8CB
:203DA0000030C7F80090F7E72B682360C7F80090F2E721462046FFF79FFFD3E72346AEE74F
:203DC000AB68002BD3D1E5E7100C0020140C002038B583687BB104460A4804600220A07380
:203DE00004F10C000D4698470238012804D9832D02D00123A37338BD21462046BDE83840B5
:203E0000FFF77ABF100C0020F8B5134A134B146800221A70D4B1124F0125022601E0246806
:203E2000A4B1E37B002BFAD0A368E581002204F10C008221002BF2D03C60A67398470238E8
:203E4000012804D9A5732468002CEAD1F8BD21462046FFF751FFE2E7140C00203927002080
:203E6000100C0020024B1878421C1A70704700BF37270020F8B5164A1568854207D00446DB
:203E800035B12B4600E01BB11B689C42FBD1F8BD002CFCD00F4EA36825600125146000229C
:203EA0003768A573A2815BB10A460221A1733460812104F10C0098470238A84202D9A57368
:203EC0003760F8BD21462046FFF716FFF8E700BF140C0020100C002030B408480849094ACC
:203EE000094C0A4D00234FF08A0C03700B6013602B7084F800C030BC704700BF3827002015
:203F0000140C0020100C002037270020362700202DE9F8432D4D2B78F3B92D4E3378BBB17E
:203F20002C4C2D49227802EB4200013202F01F02227001EB8002D2E90184013BDBB211F872
:203F4000207033705CB1812F1ED0A27BD2071DD428781844BDE8F883FFF756FFDDE71F4A08
:203F600014685CB9F4E7A37B13F0010F20464246394601D0FFF72CFF246814B32B78002B24
:203F8000F1D0FFF741FFEEE70122A273D4F80890B9F1000FDCD0124B1C6002234246A373B8
:203FA000394604F10C00C8470238012805D9832F03D001223378A273CAE721462046FFF755
:203FC0009BFE337828781844BDE8F883392700203827002036270020900A0020140C00200B
:203FE000100C0020024A034B10781B7818447047382700203927002030B40F4C94F800C033
:20400000BCF1200F15D00D4B1B78634403F01F030CF1010C03EB430384F800C0084C05461F
:2040200004F8231004EB8303C3E90125002030BC7047012030BC7047382700203627002087
:20404000900A002038B5837B034CDB07256801D5FFF7BEFE256038BD100C002018B1837BF8
:20406000013B012B00D97047024A0123C3731370704700BF39270020FCF7DCBF10B504468C
:2040800007F0C6FF01462046FCF7DCFFBDE810400A20FCF7CFBF00BF08B50448FDF792FFFC
:2040A000BDE808400248FDF78DBF00BF0C020020000200200148FDF7E1BF00BF00020020BC
:2040C00038B50E48FDF790FF044678B10C48FDF78BFF0546206058B1FFF7A0FC05F19A01DE
:2040E000A5F8800005F18200FFF736FD204638BD21460248FDF794FF2C46F7E700020020FD
:204100000C020020006800F19A018230FFF724BD10B5044621460748FDF7A2FF00B910BD14
:2041200021680548FDF77CFF21460248BDE81040FDF776BF000200200C02002010B504460C
:2041400021460948FDF78CFF00B910BD2468B4F880102046FFF726FC04F19A0104F1820055
:20416000BDE81040FFF71ABD0002002008B506F07FFE80B208BD00BF0E4A01210023116067
:20418000C2F80031D2F80031002BFBD0D2F8080508490023C0B2C2F80031D1F80031002B76
:2041A000FBD0D1F80825012340EA02204B6080B206F030BE00D000400023013A01600271CB
:2041C00043718371704700BF8279437990F804C09B1A13EA0C0F07D00368511C9B5C01EA60
:2041E0000C028271184670474FF0FF30704700BF70B5134E337803B170BD04460D4605F021
:2042000037F9034684B10F4B2068616803C395B10D4BA868E96803C30A480122002105F02F
:2042200069FA0123337070BD59689A68054C0068DB680FC4EBE70549024805F00FFCEBE759
:204240003A27002098110020A0110020DC25002010B50021084682B0FFF7CAFF174B002477
:2042600003F160011A7E1AB193F82A20012A15D020338B42F6D1204605F0A2F904B9C8B18E
:2042800002F04CF94023024621460020009300F09BFB00F017FA002002B010BD9A7EFE2ABC
:2042A00002D003F11A04E3E7DA7E802AE0D003F11A04DDE74FF0FF30EEE700BF8C1D0020FD
:2042C000054B187B30B1B3F84A00DB8AC01AB0FA80F04009704700BFA81100202DE9F047E7
:2042E0001B4CDFF870909DF824A0164680460D464FF4B072002120461F4607F081FEB9F83A
:204300002030B34205D108995246384602F060F918B900263046BDE8F087F023E373012667
:204320004FF0FF334FF2F00284F80D802673A364A4F84C30A4F85A20C4F80890286869684D
:20434000AA68EB681C340FC43046BDE8F08700BFA81100204802002010B5044600F13C0302
:2043600094F8501090F85100228A82B0CDE900102146207EFFF7B2FF00B3114B627D617F5A
:20438000206AB4F81EC019769A73618B58610022606DA3F81AC01982217F83F85E2094F8A4
:2043A00016C083F856C09974217D83F85510E17D186083F85410012083F8572002B010BDC4
:2043C000A81100202DE9F0414C4DB5F84A4001F0FBFF95F85E30032B5CD0FFF771FF0646DB
:2043E00020B1AB68BDE8F041DB691847D5F84480434F01F041FC01F0D9FB686C01F0A4FBE6
:20440000A5F84A003868FDF75BFF0446002838D1B8F1000F55D0B5F84A30B5F848209A4257
:2044200001D9A5F84830B5F84C304FF6FF7293420AD0B5F84A10914206D0CB1A002BB8BFC8
:204440005B42B3F5007F3FDC95F85D30002BC8D06B6C002B3ED0B8F1000F45D001F002FED2
:20446000002385F85D30AB68BDE8F041DB691847236813B321463868FDF7EAFE04460028DD
:20448000C6D0204601F060FBB5F84A308342EFD82660EFE7002001F089FB4FF6FF739C429B
:2044A000A5F84A309DD0174801F0ACFD01F024FFAB68BDE8F041DB691847FCF70DF9206066
:2044C000D8E7B5F84A30ACE70F48A5F84C1001F099FDB9E70B4885F85E3001F093FD01F01C
:2044E00071FD01F009FFBBE70123084885F85E3001F088FD01F0ECFEB0E700BFA8110020B4
:204500006C020020B8C50000C8C50000E0C50000094A137B73B110B4044640B102F11C0C3F
:20452000BCE80F0020606160A260E36001205DF8044B704718467047A811002010B5FFF71D
:20454000BFFE134C78B994F95A2094F85A30002A03F10103B4BFDBB203F07F03002084F8BE
:204560005A3001F0A7F8FDF7CDFB01F049FB05F091FE01F007FF94F841305B0602D400235E
:20458000237310BD034801F0FFFF0023237310BDA8110020D4110020024B032283F85E20AF
:2045A00001F01CBFA811002008B50F4B1A7B8AB11A6D511C0ED082420DD9101AB0F5967F0F
:2045C000186507D2586C28B101F0CAFABDE8084000F014BF08BD00210322196583F85E2001
:2045E000BDE8084001F0FABEA811002010B5084C237B5BB194F840200146D20804F11C006B
:2046000007F0C6FCB0FA80F0400910BD184610BDA811002010B5FFF753FE88B1114C94F97E
:20462000542094F85430002A03F10103227BB4BFDBB203F07F03F02184F85430E17302B9A2
:2046400010BDFFF73DFE08B984F85E00A3681B68984701F0D5FA044801F0D4FCBDE8104092
:2046600001F0BCBEA8110020ECC5000010B50A4C237B03B910BDFFF723FE08B984F85E0051
:20468000A3681B68984701F0BBFA044801F0BAFCBDE8104001F0A2BEA8110020ECC5000044
:2046A000074B9A7B187B1AB9003818BF0120704728B193F85E00012894BF00200120704710
:2046C000A8110020024B1B7B03B97047FFF77ABEA81100202DE9F041744D2B7B06460C4658
:2046E0002BB16A7B237E9A4209D0BDE8F081FFF7E7FD98B12B7B002BF3D1BDE8F0816C480B
:204700001022214607F044FC0028EED1628AEB8A9A4216D2BDE8F041FFF754BE637D012BD3
:20472000E3D82046FFF718FE0028DED0AB681B689847604801F066FC01F094FD01F0DCFDBA
:20474000D8E7E17D95F8540001F0CAFE628A002840D14FF6FF739A4204D095F859300133CC
:2047600085F8593095F85410E07D01F0B9FE48B1B5F84A20EB8A9A4257D0FFF7A1FD0746D4
:20478000002868D022460121304600F01BFEE8B1304601F063FA0746002843D090F80680BD
:2047A000304601F05BFA002846D0638A8380637E83712B6DABB96B8BC3EB03135B012B6598
:2047C000AB7B1BB117B16B6C9F4217D02B7B002B8BD09FE7EB8A9A42F8D1374801F012FC36
:2047E000F4E7002FF2D06B6C9F42EFD16B8BAA7BC3EB03135B012B65002AE7D0607E414664
:2048000001F06EFE0028E1D095F90F20EB7B002A03F10103B4BFDBB203F07F03EB7301F059
:2048200021FCD3E74FF0F008BAE7E37D234885F85430FFF7EFFEA5E7304604F00BFD0028F4
:20484000C4D01F4B0146012218682346FDF764FD0028AAD1BAE701F095FD384601F0A6F9DD
:20486000637D012B12D92B7B002B8BD0FFF728FD08B985F85E00AB681B68984701F0C0F93F
:20488000104801F0BFFB01F0A9FD7BE72046FFF763FD0028E7D0AB681B689847054801F0CE
:2048A000B1FB01F0DFFC01F027FDDCE7A8110020C4110020FCC5000004C6000020C6000069
:2048C0006C020020ECC5000011B1084801F09ABB10B50A460321044600F074FD20B1204626
:2048E000BDE8104000F0A6BD10BD00BF3CC6000038B591F823300C460546BBB1FF2B1BBF0C
:204900000D4A508B4FF0FF3343430A460020294605F01CFC18B194F92530002B00DB38BDDC
:20492000218C2846BDE8384001F0B6BB0A460146184605F0E7FBEEE7A811002070B5154DDC
:204940000E4695F85B10044601F0CAFD08B185F85B4095F85A30A34200D070BD95F85E3024
:20496000012B76B207D001F0B5FB002EF5DA032385F85E3070BD002E02DA01F0ABFBF6E792
:204980000223054885F85E3001F03CFBBDE8704001F0A0BBA81100204CC6000070B5054676
:2049A0000E461C463AB924B11DB1064BAE801B7B23B9012070BD01F03FFBF4E7FFF702FD71
:2049C000012070BDA81100202DE9F047264C82B09846237B9DF828A005460E46174653B1E6
:2049E000102204F11C0007F0D3FA80B34FF0F009FFF7A4FD01E04FF0F0093B463146CDE9E7
:204A0000008A28460122FFF769FC0122A27340F60842228280201E2214492276A4F84A0009
:204A20003C2213486161002362834FF0FF310222A37484F85490216584F85530A4F8563040
:204A400084F85E2002B0BDE8F04701F0DBBA94F9543094F85490002B09F10109B4BF5FFACC
:204A600089F909F07F09C3E7A81100200004800058C6000002484FF4B072002107F0C0BACD
:204A8000A8110020114A907918B992F82A10632901D00120704792F82910A9B992F82B3005
:204AA000042B10D10A4B187B70B193F80DC092F82D00604507D1B3F84A3082F82D005BBA70
:204AC000D385012070470846704700BFD4200020A811002070B5174A0546118816482B22E0
:204AE00006F02CF804461548FFF780FD08B9002070BD1349002005F0B5FA1049064600208F
:204B000005F0B0FA14B1A278032A06D00028EED0002EECD04369B342E9D1084C0FCC002694
:204B200048F2FE0129806E80AE80AA60EB60EE80012070BD26270020D4200020EC200020B9
:204B4000C41100202DE9F0432B4B2C48198885B02B2205F0F3FF044610B18378032B03D01C
:204B6000002005B0BDE8F083C278002A40D06378017966790133DB00DBB201F00F05A3EB71
:204B8000161309092B44C1F11000183B93FBF0F30133DBB29A42E3D8184F9B1ADBB203FBE6
:204BA00000F0E31B08301033012A18BF0D4603445B1BB3F5A06FD3D807F1180326180FCBED
:204BC00005F1180CE846C5F1100988E80F0007EB0C0031464A4607F0EBF94A4608EB0501D6
:204BE000304607F0E5F9E378013B0120E370B8E7012005B0BDE8F08326270020D420002051
:204C0000437893BB2DE9F047425A40F263439A4200EB010426D11A4D2B7B1BB36A7BE378EC
:204C20009A421FD1A67816F020081BD1154BA788D3F800900C20FEF7EBFF01464846FDF7B2
:204C4000FDFBA278B5F84A107FBAF609BFB2C2F380130CD0B9420ED942463946BDE8F047A9
:204C6000FFF79CBE0020BDE8F08700207047B94201D83246F1E742F04002A2700122ECE731
:204C8000A81100206C0200202DE9F0412A4F2B4E398882B001230DF10702304605F0E8FE05
:204CA000002841D09DF80730062B3DD0044606F1060814E013B9A378632B16D03988A31B94
:204CC000C91A204600230DF1070289B205F0D0FE044648B39DF80730062B804624D0112B2B
:204CE00022D03A2B20D02B2BE4D1237888F8003065780135ED00684205F086FEC0B13988C2
:204D00002839304689B205F0A9FE3A88A31B9A420EDDD21A6119204607F058F998F80030CA
:204D20008DF80730062BDAD1012002B0BDE8F081002002B0BDE8F08126270020D420002089
:204D40002DE9F04FDFF8908298F80C3089B04BB39B4C228B48F2FE039A4223D0237EFF2BA9
:204D600020D0FFF7ADFA054670B904F1080004F027FC20B1934BE2791B799A4217D009B004
:204D8000BDE8F04FFFF77EBE04F11807FFF77CFF3846FFF72BFC28B13946002005F062F915
:204DA000064658BB0125284609B0BDE8F08F864E3288B2F59F6FF6D804F12801283A04F19D
:204DC000300007F003F9A37984F82830B8F84A3098F80D20C4F829505BBA40F263416185D3
:204DE000E385A57184F82D20082005F00DFE31882839204689B205F031FEC0E708F11C01A8
:204E0000002005F02FF90190002847D03946002005F052F9002841D0D6F814A0BAF1000F31
:204E200000F0BC80019B534500F0C080674B03969B6902934FF000090F250DF11008029BCF
:204E4000514640469847DFF894E12946C34670464246002312F8016B10F801CFB44502D117
:204E60000133102BF6D19D420CDADAF814A009F10103DBB2BAF1000F14D0019A524511D075
:204E80009946DCE700211BF8013B1EF8012F9A4206D101311029F6D10D46E6E7002582E727
:204EA000CDB2E2E7C1F1100AC5F118081AFB09885FFA88F918F007081FBFC8F108085FFA71
:204EC00088F8C1445FFA89F9039E9B464B463E4A02931288D118B1F5A06FDFDC3C4908883A
:204EE000283021184844283A2044039107F06EF803994A460846002107F082F8A279029B1A
:204F000084F828202B22A271B3F1080248BF03F1FF32D21084F829202C4A84F82BB0D2F855
:204F200018B02C4BCDF80890032284F82A2005EB051284F82C204FEA081284F82D20A9EB6B
:204F400008040DF110084544C146DDF804801C4472699045A4EB0A040AD031464846D8479B
:204F600052462946204607F023F87669002EEFD1C84631464046DDF80890D84798E80F00BF
:204F800087E80F00484605F03FFD0F4B0C481988283989B2012505F061FD04E7D346082341
:204FA00099460F254FF0010AD84690E708234FF0000B99460F254FF0010AD84687E700BFE2
:204FC000D42000208C1D0020262700207CC6000024270020FC200020A8110020EB2000209A
:204FE00008B50C4A137B43B10B4B0C491B88527B2C3358185B5C9A4203D0BDE8084005F0EA
:20500000E9BCC1788078FFF799FCBDE8084005F0E1BC00BFA811002024270020D420002099
:205020002DE9F0438FB02622002104A806F0E8FF3A4A3B4C11883B4B207B01F12C02D61823
:20504000D25C8DF8322010B1607B904204D005F0C1FC0FB0BDE8F083334A757817888DF8F2
:2050600035500022CDE90422CDE90622227E8DF833200833F278ADF830202C3F7F1A0FCBDF
:20508000E84688E80F006B06FFB23DD40424BC4231DA4FF0000910E0D2788DF83420211D66
:2050A0000732D208314408A8CDE90899CDE90A9906F07EFF2C44BC421DDA335D321901252F
:2050C000002BF7D05578052B05F10205E4D0062BF0D153798DF83330132DEBDDA21DB318F8
:2050E000B05859689A68DB682C440DF1100CBC42ACE80F00E1DB04A94046FFF7F9FB05F0A9
:2051000069FC0FB0BDE8F08304F11C001022311D06F03EFF00289AD11424B8E724270020BA
:20512000A8110020D42000202627002008B5084B1B7B4BB10748017EA1F1FF01B1FA81F1F6
:2051400008304909FFF7C0FBBDE8084005F042BCA8110020D4200020F0B59DB040220021D2
:205160000CA806F04DFF9348934B05881B8893492C3DED1A2C335C1801F108025B5C618895
:205180008DF82C3049BAADF8261061788DF82B1061798DF82D108A490D9140F60841ADF886
:2051A0002E1001212379ADF824101E218DF831103C21ADF8321023F07F018DF82810C3F3CB
:2051C000C20103F007038DF829108DF82A300FCA01AF87E80F00EDB2E168A0682269636924
:2051E00005AE182D0FC6C8BF182140F3DE80635C1BB905F0EFFB1DB0F0BD04EB010C9CF815
:20520000010002304618AE42F3DC023B062BF0D801A252F823F000BF41530000ED52000076
:205220008D520000F3510000F3510000F3510000355200002028DCD1631810311A7A9CF863
:20524000093060581B0443EA02639CF80B2013439CF80A2004EB010E43EA0223DEF804109F
:20526000DEF808201893DEF80C309CF802E09CF803C08DF865C00DF1500C8DF864E0ACE845
:205280000F00AE4280F291803146B0E71028B0D121449CF807308A7943EA0223ADF8343037
:2052A0000A7A9CF8093043EA0223ADF836309CF80B208B7A897B42EA03229CF80F30ADF8AF
:2052C000242043EA0123ADF832309CF803308DF82E309CF804308DF82F309CF805308DF88E
:2052E00030309CF80D308DF83130CAE7082880DD63189CF802E01A799CF805308DF84CE05B
:205300001B0443EA02639CF8072013439CF8062043EA02230EF107021293D2109CF8033069
:205320008DF84D30D31D8342BFF663AFBEF1800F3FF65FAF083121440EA806F039FEA0E766
:2053400005287FF756AF9CF804309CF803009CF802108DF86810DA0942EA40028DF8692044
:205360009CF805208DF86C20C3F3011203F00F038DF86A208DF86B30002982D007290BD0E0
:2053800002297FF436AF9CF806308DF86E309CF807308DF86F3074E79CF806209CF80730CE
:2053A00043EA0223ADF86E306BE705A93846FFF791F91EE72627002024270020D420002069
:2053C00000048000F0B583B005460E46174603F01BFF044610B1204603B0F0BD0C20FEF776
:2053E00017FC22460146CDE900670123284603F0A1FE0446204603B0F0BD00BF70B504466C
:20540000FFF760F9084B094D198809482C314B1900225A70944218BF20464A550223BDE879
:2054200070409B2104F070BC24270020D4200020C81300202DE9F04F8FB08146FFF742F9DA
:2054400000F0F6FF18B1B9F1000F00F02381934B934A1B88934E2C339C18717B995496F898
:205460005430637000F0E4FF002867D1B6F84A30E3701B0AA37096F85530B17B8A4D002BAE
:2054800096F8563003F0070314BF6FF07F02002243EAC10313432371F37B63710023A371D2
:2054A000E3710FCDA060E1602261636100F0C0FF002847D13378002B44D07178B778F578D6
:2054C000A376CA0142EA07122A430220227749080622072B2076E176627600F0D580022B99
:2054E00040F0D880B2796377F379A277E37726234FF0270E4FF02908CDE90B3E2823CDE913
:2055000009384FF02B0A2A23CDE9073A4FF02F0B2E23CDE9053B2D222C23CDE90223252311
:20552000019323232020049321234FF0300A4FF0240B4FF022081A460D9026E0FF23A370EE
:20554000E37098E71E231F22CDE90B3221212023CDE9093123252223CDE907352727262379
:20556000CDE905374FF0250C2423CDE902C31D2301931B231820049319234FF0280A4FF03A
:205580001C0B4FF01A081A460D904FF0040E04F800E00E20A054049A96F810C0B18A777C0D
:2055A000B57CF38A4FF0000E04F808E004F802C0019A04F80B70A5540B9A357E080AA054E5
:2055C0000C9A96F84000A154099A190AA1540A9AA354B368079A198C738B0F0AA754089AF7
:2055E000A154039A04F802E0029AA554059A190AA154069AA35480B900F01AFF20B92B4BC7
:20560000B9F1000F08BF9946534601229B2148460FB0BDE8F04F04F077BB0D9AF16B96F8CB
:205620004130019302F11C06A3184FEA1168C1F3074702964FF0080BC1F30726C9B204F89F
:205640000AB01B4D98749E759E76D975D9760198029ED8741E21597483F8148083F81880A5
:205660005F755F760023A35102F1200E02F1300A0FCD04EB0E0C44F80E00CCF80410CCF851
:205680000820CCF80C30B7E7F388E3771B0A6077A3772CE70FB0BDE8F08F00BF2427002039
:2056A000D4200020A8110020C4110020C8130020D41100202DE9F041044600F02FFF344ED7
:2056C0000746706C00F04CFA0546FEF7FBFF337B002B5BD0726C002A58D0002F56D0002D7B
:2056E00054D0B37B002B51D02A4B727BB3F800C0294B0CF12C0C00210CF803209C44002C42
:2057000096F85A308CF803300CBF0B4680238CF8013005238CF8043012238CF805308023D5
:205720008CF802108CF806108CF807307868BB6806F11C023E68FF68CCF80C008CF81A10DB
:205740008CF81B108CF81C1003CACCF81030CCF81E001423A2F108000622CCF81470CCF831
:2057600008608CF81D408CF81820CCF822108CF81930AB68E968CCF826300222CCF82A10C1
:205780002E23BDE8F0419B2104F0BEBABDE8F081A811002024270020D420002030B583B034
:2057A0000D4614460190FEF78DFF0D4A0D4BB2F800C00D4A0198527B0CF12C0C00210CF8FA
:2057C00003209C4403228CF8011004239B218CF802508CF8034003B0BDE8304004F094BA82
:2057E00024270020D4200020A811002008B5074804F0E2F9064804F0DFF9064804F0DCF945
:20580000BDE80840044804F0D7B900BF3C020020300200202402002018020020704700BF66
:20582000014B00221A707047A811002008B500F0A3F908B1808808BD4FF6FF7008BD00BFD9
:20584000B0B138B50446858800F096F968B183884FF6FE722B44934207D8204600F08CF94D
:2058600048B18088284480B238BD4FF6FF7038BD4FF6FF7070474FF6FF70F3E770B5054682
:20588000FFF7DEFF0B4B0446586CFFF7D9FF2B680646BF3423B9B442B4BF0020012070BD7E
:2058A000FAF71AFF2B68C01AB0F5963FF3D9002070BD00BFA811002008B500F05DF928B16A
:2058C0008088B0F5007F8CBF0020012008BD00BF10B50446FFF7B4FF034620461C4600F0D3
:2058E0004BF940B18388B3F5007F05D8B4F5004F8CBF0020012010BD002010BDF8B50D4626
:2059000078B30446FFF79CFF0646204600F034F938B38388B3F5007F23D8A5B32846FFF7DE
:205920008FFF0746284600F027F960B38388B3F5007F28D8B7F5004F25D8B6F5004F20D8DF
:205940001A4E736CA3422AD09D4221D02046FFF777FF06462846FFF773FF864211D220464C
:20596000F8BD9DB12846FFF76BFF0446284600F003F958B18388B3F5007F07D8B4F5004FA0
:2059800004D82846F8BDB6F5004FE8D90020F8BD2046FFF773FF0028D8D02846F2E7284625
:2059A000FFF76CFF0028DAD1736CCDE7A811002018B370B5144B8688DD8A044600F0DCF875
:2059C000C0B183884FF6FE723344934212D8204600F0D2F8A0B18088304482B2A3884FF6CF
:2059E000FF715819884228BF0846904238BF104680B270BD4FF6FF72F0E74FF6FF70704751
:205A00004FF6FF70E8E700BFA811002070B5054608460C4600F090F898B10B4B9B685B697D
:205A200098470646284600F087F838B1064B9B685B699847B04201D2204670BD2C4620464E
:205A400070BD4FF6FF76EDE7A811002008B50C4BD3F82821824204BF0022C3F82821D3F812
:205A60000421824204BF0022C3F80421054B01461868FCF7FFFCBDE8084000F0AFBC00BF6C
:205A8000A81100206C0200202DE9F843284D2B7B0026002B3DD0274F81463868FCF710FCF9
:205AA0000446002835D04FF6FF780DE0B5F848200A44424528BF4246934215DD214638689F
:205AC000FCF7C6FB044620B3AB685B692046002BF4D0984740450346F0D0EA8A8242EDD85F
:205AE000A98A20460029E1D1AB68DB6898470028E4D0B9F1000F0FD1AB6821469B69304694
:205B00009847214606463868FCF7A2FB04460028DAD13046BDE8F88321463868FCF70EFD0B
:205B2000FCF720F8FCF724F80028E5D1C6E700BFA81100206C020020024B01461868FCF793
:205B40007DBC00BF6C02002020B1044B9B685B6903B118474FF6FF70704700BFA8110020C2
:205B600008B5044B01461868FCF7E8FCBDE8084003F06ABB6C02002008B5044B0146186815
:205B8000FCF7DCFCBDE80840FBF7ECBF6C02002008B5054B01461868FCF7D0FCFBF7E2FFBC
:205BA000BDE80840FBF7E4BF6C02002070B5124D696C81421FD0114E04463068FCF7A2FCF8
:205BC00021463068FCF786FC696C3068FCF7B6FC03F03AFB03F080FB03F060FB214630685C
:205BE000FCF7ACFC03F030FB002103F093FB01236C6485F85D3070BDA81100206C020020B8
:205C0000F8B5144E0020FFF7D1FF3068FCF758FBD8B1114D04460027D5F828313068A342B6
:205C2000D5F8043108BFC5F828712146A34208BFC5F80471FCF71EFC00F0D0FB2146306839
:205C4000FCF706FB04460028E6D1BDE8F840FEF739BD00BF6C020020A811002008B503F089
:205C6000D3FA03F0CBFA034B01461868BDE80840FCF7E4BB6C02002038B5FEF721FB20BBA4
:205C80000546FFF701FF0446F8B1144B01461868FCF754FCFBF766FFFBF76AFF68B9104D37
:205CA000D5F82831A3B16B6CA34209D00120FFF7EBFE38B10446204638BD094BC3F82851BF
:205CC000204638BD6B6C002BFAD10024204638BDC5F8284100F0E6FAE5E700BF6C0200200E
:205CE000A8110020024B03491868FCF78FBA00BF6C0200204D5A000070B5114D114995F818
:205D0000573080249C40A1FB0434A3092B66FEF72DFAE4090C492B6E04FB00F0A1FB0021C8
:205D200004EBD131581A01242866A5F8584005F1A400064ABDE870400023FBF7FBB800BF52
:205D4000A8110020D34D621001800080F55D000008B5054BD3F80401FFF702FF18B1BDE843
:205D60000840FFF767BB08BDA811002010B5134C94F85C30207E013384F85C30FFF79AFC83
:205D800094F85C30042B14D8FEF7F0F90C490D4AA1FB0031490A01EB8101A0EBC11000F567
:205DA000A071002304F1E40089B2BDE81040FBF7C1B8BDE810400448FEF758BCA811002018
:205DC000CDCCCCCC6D5D000064C600000348002290F83C1100F59670FFF7E0BCA8110020F6
:205DE000024B1B7B03B97047FEF7A8BBA8110020FEF768BC10B5FEF753FC58B3164C94F801
:205E000058306BB9637C217C94F857200B449A42BCBF013284F85720BDE81040FFF76CBF75
:205E2000FEF74EFA28B9A37C1BB194F859209A4206D2B4F84A30A4F84C300020FFF7FAFA58
:205E40000023216E84F85830044A0548BDE81040FBF770B810BD00BFA8110020F55D00002B
:205E60004C12002010B5144C012384F85C30FEF77DF91249124AA1FB0031490A01EB8101A3
:205E8000A0EBC11000F5A071002304F1E40089B2FBF750F894F95A2094F85A30207E013340
:205EA000002AB4BFDBB203F07F0384F85A30BDE81040FFF7FFBB00BFA8110020CDCCCCCCCF
:205EC0006D5D000010B5204C237B53B91F48FBF793F8F8B9FEF7F6FBBDE810401C48FBF757
:205EE0004FB83C20FEF760FB3C2004F093F9237B002BEBD0636C002BE8D0B4F84A204FF682
:205F0000FF739A42E2D0FEF7DDFBBDE810401048FBF736B8FEF72AF90E490F4AA1FB0031F2
:205F2000C90AC1EB0111A0EB012000F5F0610023064889B2FAF7FEFFFEF7C4FBBDE810409B
:205F40000348FBF71DB800BFA811002088130020A8130020898888885D5F000010B5FEF76A
:205F6000AFF950B9134B1A7B42B15A6C32B1B3F84A204FF6FF739A4200D010BD0020FFF786
:205F80003DFA0D48FBF738F80028F6D0FEF7EEF80A490B4AA1FB0031C90AC1EB0111A0EBF9
:205FA000012000F5F061BDE810400348002389B2FAF7C0BFA81100208813002089888888B7
:205FC0005D5F000010B50C48FBF716F800B910BDFEF7CCF809490A4AA1FB0031C90AC1EBBB
:205FE0000111A0EB012000F5F061BDE810400248002389B2FAF79EBF8813002089888888D6
:206000005D5F000010B5FEF74BFB48B1094C94F8573013B1627C9A4202D200F009FA00B16D
:2060200010BD637C84F8590084F85730BDE81040FFF762BEA811002010B4084C237B13B976
:206040005DF8044B70470023C4F80401044A04F1C40019465DF8044BFAF76CBFA811002002
:20606000515D000010B50A4C237B0BB1A37B03B910BDFEF77BF8C0F3080000F58071054AFE
:2060800004F1E4000023BDE81040FAF753BF00BFA8110020655E000010B50C4C227B02B93C
:2060A00010BD03468C469A6859680068DB68A4F83CC104F5967EAEE80F0000230EF1040019
:2060C000034ABDE810401946FAF734BFA8110020CD5D0000114B1A7B12B1197EFF2900D1F4
:2060E000704710B55C8B04FB01F1CC01FEF73EF80B4BA3FB00231B0BC3EB0313A0EB432065
:2061000000F5F05080B2844288BF241A2146054A0548BDE810400023FAF70CBFA81100201D
:2061200089888888655E00008C1200202DE9F041334CFAF7D1FA237B002B39D0D4F8285124
:2061400015B12846BDE8F0810746606C18B1FFF71FFD002852D0FEF709F800EB800303EB65
:20616000031303EB032300EB430080B2254E45F25553984230681FD9FCF7A2F80446B8B199
:206180004FF6FF7706E021463068FCF761F804460028D6D02046FFF7FBFC0028F3D1204656
:2061A000FFF7D2FC0DB1B842EDD207462546EAE700252846BDE8F081FCF782F80446002893
:2061C000F6D04FF0000806E021463068FCF740F804460028B5D02046FFF7DAFC0028F3D18D
:2061E0002046FFF7C9FC0028EED0036815B1FA1A4245E9D9A7EB03082546E5E7656CA0E7DE
:20620000A81100206C02002070B5FFF78FFF0546FFF7A6FC30B104462846FFF7ADFC2046ED
:20622000FFF708F90C4C237B03B970BDFDF79EFF0A4B0B4A010AA3FB01314FF4345303FBAA
:20624000110000F5B451002304F5847089B2BDE87040FAF76FBE00BFA81100200B5BB005C2
:206260000962000010B50C4C237B03B910BDFDF77DFF0A4B0A4A010AA3FB01314FF43453B1
:2062800003FB110000F5B451002304F5847089B2BDE81040FAF74EBEA81100200B5BB005C4
:2062A0000962000010B5084C237B03B910BDFDF75DFF064AC0F30801002304F58470BDE822
:2062C0001040FAF737BE00BFA81100200962000010B5084C237B03B910BD04F18400FAF7DB
:2062E0008BFE0028F8D104F18400BDE81040FAF769BE00BFA811002010B50A4C237B03B991
:2063000010BD04F18400FAF777FE0028F8D004F18400054ABDE8104000234FF41641FAF776
:2063200009BE00BFA8110020E15D000010B51048104A00234FF4F051FAF7FCFD0E48FAF771
:206340005BFE00B910BDFDF711FF0C490C4AA1FB0031C90AC1EB0111A0EB012000F5F0615F
:20636000BDE810400448002389B2FAF7E3BD00BFA8130020C55E0000881300208988888854
:206380005D5F000010B50F4C2046FAF71BFE04F12000FAF717FE04F14000FAF713FE04F16A
:2063A0006000FAF70FFE04F18000FAF70BFE04F1A400FAF707FE04F1DC00BDE81040FAF7CA
:2063C00001BE00BF0C1200200348037B03B970476430FAF7F7BD00BFA81100200448037B2A
:2063E00003B970470023034A19466430FAF7A2BDA8110020F15D0000044B187B20B193F812
:206400005E00003818BF0120704700BFA8110020054B187B30B193F85E00A0F10200B0FAB5
:2064200080F04009704700BFA8110020704700BF014B1878704700BF3B27002008B50C48F9
:20644000002340F2FF214FF0D052C0E90013C0E9023203F00BF9FEF70DFBFFF743FCFFF7AE
:2064600065FFFFF7C3F9BDE8084003F0C1BE00BFC813002010B50A4C237B012B00D010BD6B
:20648000FFF75AFB0028FAD0D4F82831984204BF0023C4F82831BDE81040FFF79FBF00BFBD
:2064A000A8110020034698B10A4671B110B40A4C03CC18605960D1681269DA604FF0010CAB
:2064C000996060465DF8044B70478C466046704784466046704700BFC4110020704700BF42
:2064E0007F2801DD7F290EDD884206DC13DA081A7028D4BF002001207047401A0F28CCBF8A
:2065000000200120704701F58071081A1028D4BF0020012070470020704700BF2DE9F041DA
:20652000174F3A7B12B197F84020F2B990461746144C002604F1600514F8023C13B1237C23
:20654000012B05D02034A542F6D13046BDE8F0812378FE2B42460CD087B12146384605F072
:2065600017FD002808BF2646ECE74FEAD2082C37DEE76378802BE5D0002FEED12646E1E741
:20658000A8110020A61D002000B5027D85B0073200230146D2086846CDE90033CDE90233D7
:2065A00005F006FD6846084903F058FA684603F007F808B103F000F8044B002283F840200F
:2065C00005B05DF804FB00BFDC250020A8110020A0B3F0B54B1E7F2B85B00C4606D812F087
:2065E0004001154605D1084605B0F0BD002005B0F0BD164B0026E71DC3E90066C3E9026646
:206600000146FA08184605F0D3FC4FF0FF31016104750146FA1045756846CDE90166009659
:20662000039605F0C5FC6846094903F017FA684602F0C6FF18B1012005B0F0BD7047014658
:206640000122684603F056F8F5E700BFD4110020DC25002010B4164B16490022C3F84021A5
:2066600083B0D3F840210192019AD3F8102522F00F0242F00802C3F81025D3F8082542F014
:206680000302C3F80825D3F804254FF480344FF4807022F00302C3F80425C3F80443C1F839
:2066A0008001086001221A6003B05DF8044B70470080004000E100E0014BC3F840057047C2
:2066C00000800040024B01225A64D3F84405704700800040074BD3F8402102B9704700222F
:2066E00082B0C3F84021D3F840310193019B02B000F004B800800040FFF7ACBF10B5084C48
:20670000206858B1D0E90131002222609847236823B1BDE810401868FFF7CEBF10BD00BF97
:20672000D81300202DE9F0410488752C064607D07C2C37D0A4B1002303800320BDE8F081D4
:20674000DFF8D0802E4D98F800202E4F00233B602B6012B32C4CE256002A41DB2B6832E0C1
:20676000FDF780FB294B2A4F1870254D3A682C60002A43D02346244C984604F80380002101
:206780009368802098472B6801332B6057F82320002AF2D1DBB21F4A1370752333800120C9
:2067A000BDE8F081194B1B788B4216D1144D164CDFF86080134F3A682B6801323A60E25CFC
:2067C00002F07F02E25498F80020013393422B60C1DB3B68002BB9D1DFE70120BDE8F081DB
:2067E0000B4A52F82320094B00201978FDF704FC0028E0D17C23338001209FE71346CAE7E2
:20680000E0130020DC130020400900203D270020F00100203C27002070B50488672C064645
:206820001BD0792C33D05CB300230380032070BD1E4C1F4A23680025D554591C1D4B2160B6
:2068400028461978FDF7D8FB1B4B2A4618688521FDF7D2FB30B300232360184C134D06E082
:206860000A28E5D00D28E3D02B687E2B15DD2046FDF7AAFC431CF3D167233380012070BD6D
:20688000FDF7F0FA0B4A094B10701C60E5E7852901D0012070BD054CDDE705495A1CC854E7
:2068A0002A60E4E779233380012070BD64140020E41300203E270020100C002068140020DA
:2068C00008B5054905488022FDF776FCBDE8084003480021FDF7CEBA701400206814002043
:2068E00090020020014B024A1A607047F01400200100FD0010B51A4C0220A179FDF76EF939
:20690000A379112B17D0062B07D03A2B1DD0BDE8104000210120FDF761B9124B1B8828333E
